:100000000C9462000C948A000C948A000C948A0070
:100010000C948A000C948A000C948A000C948A0038
:100020000C948A000C948A000C948A000C948A0028
:100030000C948A000C948A000C948A000C948A0018
:100040000C94E3040C948A000C9453050C942D0535
:100050000C948A000C948A000C948A000C948A00F8
:100060000C948A000C948A000000000024002700F1
:100070002A0000000000250028002B0000000008D6
:10008000000201000003040700000000000000005F
:1000900000000000230026002900040404040404D6
:1000A0000404020202020202030303030303010227
:1000B00004081020408001020408102001020408F6
:1000C0001020850511241FBECFEFD8E0DEBFCDBFC5
:1000D00011E0A0E0B1E0E8E9F3E102C005900D9283
:1000E000A034B107D9F721E0A0E4B1E001C01D922E
:1000F000A93FB207E1F710E0C2E6D0E004C02197C3
:10010000FE010E94C409C136D107C9F70E94D20579
:100110000C94CA090C940000CF92DF92EF92FF92E8
:10012000CF93DF93B091ED01A0E08111AB2F8091CF
:10013000EE0190E0880F991FAC0140575F4FC090CF
:10014000F301D090F401E090F501F090F60130E079
:1001500020E0FA01C591D491E881B90190E080E0F6
:10016000EB23EA130AC02F5F3F4F6C157D058E0508
:100170009F0578F36FEF7FEFCB01DF91CF91FF9079
:10018000EF90DF90CF900895CF93DF9390E0FC0144
:10019000E255FF4F249186569F4FFC01849188239E
:1001A000D1F090E0880F991FFC01E859FF4FA5910D
:1001B000B491FC01EE58FF4FC591D491623071F4B7
:1001C0009FB7F8943C91822F809583238C93E8818C
:1001D0002E2B28839FBFDF91CF9108958FB7F8947E
:1001E000EC912E2B2C938FBFF6CF3FB7F8948091D4
:1001F000410190914201A0914301B091440126B583
:10020000A89B05C02F3F19F00196A11DB11D3FBF4E
:10021000BA2FA92F982F8827BC01CD01620F711D1D
:10022000811D911D42E0660F771F881F991F4A9517
:10023000D1F708958F929F92AF92BF92CF92DF92A3
:10024000EF92FF924B015C010E94F5006B017C0173
:100250000E94F5006C197D098E099F09683E734064
:1002600081059105A8F321E0821A9108A108B1083F
:1002700088EEC80E83E0D81EE11CF11C81149104A5
:10028000A104B10429F7FF90EF90DF90CF90BF90C9
:10029000AF909F908F9008958F929F92AF92BF9250
:1002A000EF92FF920F931F93CF93DF93CDB7DEB7FB
:1002B000C054D1400FB6F894DEBF0FBECDBF2FB7EC
:1002C000F8948091450190914601A0914701B09129
:1002D00048012FBF4091EF015091F0016091F10171
:1002E0007091F2018C019D01041B150B260B370B3D
:1002F000B901A801403D574061057105A0F4809106
:10030000F701C05CDE4F0FB6F894DEBF0FBECDBF65
:10031000DF91CF911F910F91FF90EF90BF90AF9021
:100320009F908F9008958093EF019093F001A09398
:10033000F101B093F2011092EA011092E9011092DA
:10034000E8011092E7011092E60162E08091EB0172
:100350000E94C40061E070E080E090E00E941A0119
:1003600061E08091EB010E94C4008091EB0190E07C
:10037000FC01E458FF4F2491FC01E255FF4F3491FA
:10038000FC01E656FF4FE491EE23D9F0222359F009
:10039000233009F44BC008F03EC0213009F44CC0B2
:1003A000223009F44DC0F0E0EE0FFF1FEE58FF4F72
:1003B000A591B4918FB7F894EC9130953E233C937E
:1003C0008FBF8091EC018551823008F046C08BE2EE
:1003D00091E10197F1F762E08091EB010E94C40086
:1003E0008091F80190E08230910538F0880F991FD4
:1003F000880F991F05970197F1F7F89480E00E9404
:100400008C006F3F7F4F8F4F9F4F71F51092F70118
:10041000789480E076CF2730B1F02830D1F02430C6
:1004200009F0C1CF809180008F7D03C08091800052
:100430008F7780938000B7CF84B58F7784BDB3CF9B
:1004400084B58F7DFBCF8091B0008F778093B00013
:10045000AACF8091B0008F7DF9CF64E170E080E099
:1004600090E00E941A01B7CF81E00E948C006F3F9C
:100470007F4F8F4F9F4F51F2CE0101967C015E015D
:100480009FEBA91A9EEFB90A870180E00E948C00B9
:10049000F801608371838283938381E00E948C00E2
:1004A000F8016483758386839783085F1F4FA016C6
:1004B000B10659F7789430E020E0F7018080918010
:1004C000A280B3804481558166817781FFEF8F16CA
:1004D0009F06AF06BF0631F04F3F0FEF5007600792
:1004E000700719F41092F70194CFF90183E0F595A4
:1004F000E7958A95E1F7EA51FE4F8081880F8416CF
:100500009506A606B70618F180832F5F3F4F18E0C7
:10051000E10EF11C2832310581F64091EA0120916B
:10052000E6018091E701280F3327331F8091E8010E
:10053000280F311D8091E901820F932F911D99277A
:100540004817190679F681E08093F701DACE8160C9
:10055000DBCFAF92BF92CF92DF92EF92FF920F93D9
:100560001F93CF93DF936C017B018B01040F151F49
:10057000EB015E01AE18BF08C017D10759F06991B1
:10058000D601ED91FC910190F081E02DC601099515
:10059000892B79F7C501DF91CF911F910F91FF90C2
:1005A000EF90DF90CF90BF90AF900895FC01538DF6
:1005B000448D252F30E0842F90E0821B930B54173D
:1005C00010F0CF96089501970895FC01918D828DCA
:1005D000981761F0A28DAE0FBF2FB11D5D968C9163
:1005E000928D9F5F9F73928F90E008958FEF9FEFA2
:1005F0000895FC01918D828D981731F0828DE80F5E
:10060000F11D858D90E008958FEF9FEF0895FC0117
:10061000918D228D892F90E0805C9F4F821B9109E4
:100620008F739927089589E491E00E94070321E0E0
:10063000892B09F420E0822F089580E090E0892B37
:1006400029F00E94130381110C9400000895FC010D
:10065000A48DA80FB92FB11DA35ABF4F2C91848D23
:1006600090E001968F739927848FA689B7892C9380
:10067000A089B1898C91837080648C93938D848DD3
:10068000981306C00288F389E02D80818F7D8083D6
:100690000895EF92FF920F931F93CF93DF93EC0196
:1006A00081E0888F9B8D8C8D98131AC0E889F98919
:1006B000808185FF15C09FB7F894EE89FF8960831C
:1006C000E889F98980818370806480839FBF81E09D
:1006D00090E0DF91CF911F910F91FF90EF900895DF
:1006E000F62E0B8D10E00F5F1F4F0F731127E02EBA
:1006F0008C8D8E110CC00FB607FCFACFE889F989F2
:10070000808185FFF5CFCE010E942703F1CFEB8DCD
:10071000EC0FFD2FF11DE35AFF4FF0829FB7F894C5
:100720000B8FEA89FB8980818062CFCFCF93DF93E3
:10073000EC01888D8823B9F0AA89BB89E889F989F9
:100740008C9185FD03C0808186FD0DC00FB607FC2E
:10075000F7CF8C9185FFF2CF808185FFEDCFCE0161
:100760000E942703E9CFDF91CF910895FC0101900A
:100770000020E9F73197AF01481B590BBC0189E410
:1007800091E00C94A9028F929F92AF92BF920F9327
:100790001F93CF93DF93CDB7DEB7A1970FB6F89431
:1007A000DEBF0FBECDBF19A2423008F44AE08E0171
:1007B0000F5D1F4F842E912CB12CA12CA50194010B
:1007C0000E94A209E62FB901CA01EA30F4F4E05D03
:1007D000D801EE938D01232B242B252B79F790E064
:1007E00080E0109719F0CD010E94B603A1960FB6D4
:1007F000F894DEBF0FBECDBFDF91CF911F910F9157
:10080000BF90AF909F908F900895E95CE1CF4F9299
:100810005F926F927F928F929F92AF92BF92CF9290
:10082000DF92EF92FF920F931F93CF936B017C01A6
:10083000742EAC019B010E949D09882399F082E1EE
:1008400091E0CF911F910F91FF90EF90DF90CF90AB
:10085000BF90AF909F908F907F906F905F904F90E0
:100860000C94B60346015701E894B7F82FEF3FEF19
:100870004FE75FE7C501B4010E949D0981110DC0DA
:100880002FEF3FEF4FE75FE7C501B4010E94D307A9
:1008900018161CF486E191E0D4CF2FEF3FEF4FE71D
:1008A0005FE4C701B6010E942B0918161CF48AE107
:1008B00091E0C7CF2FEF3FEF4FE75FECC701B601E5
:1008C0000E94D30787FDF3CF20E030E0A901C701E4
:1008D000B6010E94D30710E000E087FF0AC06DE276
:1008E00089E491E00E9449038C01F7FAF094F7F84B
:1008F000F094C0E060E070E080E09FE37C1641F09F
:1009000020E030E040E251E40E94D807CF5FF6CF0C
:10091000A70196010E9467072B013C010E944A082B
:100920004B015C014AE00E94C3037C01E00EF11E12
:10093000CC23C1F1C501B4010E9479089B01AC012F
:10094000C301B2010E9466074B015C016EE289E4BB
:1009500091E00E944903E80EF91EC15018F120E011
:1009600030E040E251E4C501B4010E9430092B019E
:100970003C010E944A084B01B12CA12C4AE0C50160
:10098000B4010E94C303E80EF91EC501B4010E9420
:1009900079089B01AC01C301B2010E9466074B01BB
:1009A0005C01DBCFC701CF911F910F91FF90EF90BA
:1009B000DF90CF90BF90AF909F908F907F906F907F
:1009C0005F904F9008951F920F920FB60F921124CF
:1009D0002F933F938F939F93AF93BF938091450144
:1009E00090914601A0914701B0914801309140019A
:1009F00023E0230F2D3758F50196A11DB11D20933B
:100A000040018093450190934601A0934701B09324
:100A100048018091410190914201A0914301B09120
:100A200044010196A11DB11D8093410190934201A3
:100A3000A0934301B0934401BF91AF919F918F91D7
:100A40003F912F910F900FBE0F901F90189526E8A1
:100A5000230F0296A11DB11DD2CF1F920F920FB688
:100A60000F9211242F933F934F935F936F937F9334
:100A70008F939F93AF93BF93EF93FF9389E491E09C
:100A80000E942703FF91EF91BF91AF919F918F91AA
:100A90007F916F915F914F913F912F910F900FBE7A
:100AA0000F901F9018951F920F920FB60F9211245E
:100AB0002F938F939F93EF93FF93E0915901F091C0
:100AC0005A018081E0915F01F091600182FD1BC0BD
:100AD0009081809162018F5F8F73209163018217F3
:100AE00041F0E0916201F0E0E75BFE4F958F80936B
:100AF0006201FF91EF919F918F912F910F900FBE07
:100B00000F901F9018958081F4CFE9E4F1E01382F3
:100B1000128288EE93E0A0E0B0E084839583A68300
:100B2000B78384E091E09183808385EC90E09587A2
:100B3000848784EC90E09787868780EC90E0918BA7
:100B4000808B81EC90E0938B828B82EC90E0958B94
:100B5000848B86EC90E0978B868B118E128E138E91
:100B6000148EA6EEB1E082E015968C9315978BE07B
:100B700016968C931697E0EBF0E0E4911796EC93C1
:100B80001797ECE9F0E0E4911896EC93189740E899
:100B90005EE360E070E01D964D935D936D937C93F2
:100BA00050970895789484B5826084BD84B581603F
:100BB00084BD85B5826085BD85B5816085BD809128
:100BC0006E00816080936E001092810080918100A0
:100BD0008260809381008091810081608093810098
:100BE000809180008160809380008091B10084605A
:100BF0008093B1008091B00081608093B0008091BB
:100C00007A00846080937A0080917A008260809379
:100C10007A0080917A00816080937A0080917A00D6
:100C2000806880937A001092C100E0915901F091A0
:100C30005A0182E08083E0915501F09156011082C3
:100C4000E0915701F09158018FEC8083109261017F
:100C5000E0915D01F0915E0186E08083E0915B01AF
:100C6000F0915C01808180618083E0915B01F09173
:100C70005C01808188608083E0915B01F0915C0180
:100C8000808180688083E0915B01F0915C018081CC
:100C90008F7D808362E08091EB010E94C4002FB7BA
:100CA000F8948091450190914601A0914701B0913F
:100CB00048012FBF805D9740A109B1098093EF01E2
:100CC0009093F001A093F101B093F20187E3809338
:100CD000F801C0E0D0E068E873E180E090E00E94B5
:100CE0001A010E944C01882349F08091EC018B305D
:100CF00028F08D3050F085518230C8F1812C912C34
:100D000020ECA22E2FE7B22E1EC06091E70170E00A
:100D100090E080E00E947B082DEC3CEC4CEC5DE325
:100D20000E9430096B017C016091E60170E090E067
:100D300080E00E947B089B01AC01C701B6010E94C4
:100D400067074B015C010E944C01882309F48EC0A7
:100D50008091EC018C3009F494C0D8F48B3091F17F
:100D6000C12CD12C80ECE82E8FE7F82E55C0609175
:100D7000E6017091E70176276727762790E080E00B
:100D80000E9479082DEC3CEC4CEC5DE30E943009AC
:100D9000D8CF8551823020F71091E801612F70E0A3
:100DA000762F662766277F778091E901682B90E090
:100DB00080E00E9479082DEC3CEC4CEC5DE30E9455
:100DC00030097BC06091E80170E090E080E00E9413
:100DD00079086B017C011091E90117FF0AC0AC0191
:100DE0009B0160E070E080E89FEB0E9466076B016A
:100DF0007C011F70612F70E090E080E00E947B0812
:100E00002DEC3CEC4CEC5DE30E943009A70196010F
:100E10000E9467076B017C01A5019401C501B40123
:100E20000E949D09811122C0A7019601C701B60148
:100E30000E949D0981111AC08EE191E00E94B603C3
:100E400042E0C701B6010E9407048EE291E00E94D1
:100E5000B60342E0C501B4010E9407048BE391E0B0
:100E60000E94B6038DE391E00E94B603209709F437
:100E700032CF0E941303882309F42DCF0E94000073
:100E80002ACF1091E801612F70E090E080E00E948D
:100E900079086B017C016091E9016F7070E090E06E
:100EA00080E00E947B082DEC3CEC4CEC5DE30E9462
:100EB0003009A70196010E9467076B017C0117FFAB
:100EC000ABCFF7FAF094F7F8F094A6CF5058BB27C1
:100ED000AA270E947E070C94F1080E94E30838F0CC
:100EE0000E94EA0820F039F49F3F19F426F40C948C
:100EF000E0080EF4E095E7FB0C94DA08E92F0E9475
:100F0000020958F3BA17620773078407950720F0A0
:100F100079F4A6F50C9424090EF4E0950B2EBA2F63
:100F2000A02D0B01B90190010C01CA01A0011124EF
:100F3000FF27591B99F0593F50F4503E68F11A169B
:100F4000F040A22F232F342F4427585FF3CF46952C
:100F500037952795A795F0405395C9F77EF41F164E
:100F6000BA0B620B730B840BBAF09150A1F0FF0F18
:100F7000BB1F661F771F881FC2F70EC0BA0F621F04
:100F8000731F841F48F4879577956795B795F795F4
:100F90009E3F08F0B0CF9395880F08F09927EE0F89
:100FA0009795879508950E94B60808F481E0089502
:100FB0000E94EC070C94F1080E94EA0858F00E9485
:100FC000E30840F029F45F3F29F00C94DA0851114E
:100FD0000C9425090C94E0080E94020968F39923F7
:100FE000B1F3552391F3951B550BBB27AA27621725
:100FF0007307840738F09F5F5F4F220F331F441F32
:10100000AA1FA9F335D00E2E3AF0E0E832D0915065
:101010005040E695001CCAF72BD0FE2F29D0660F52
:10102000771F881FBB1F261737074807AB07B0E895
:1010300009F0BB0B802DBF01FF2793585F4F3AF09B
:101040009E3F510578F00C94DA080C9425095F3F17
:10105000E4F3983ED4F3869577956795B795F79521
:101060009F5FC9F7880F911D9695879597F9089509
:10107000E1E0660F771F881FBB1F621773078407A5
:10108000BA0720F0621B730B840BBA0BEE1F88F7B4
:10109000E09508950E940A0988F09F5798F0B92FAB
:1010A0009927B751B0F0E1F0660F771F881F991F9D
:1010B0001AF0BA95C9F714C0B13091F00E94240912
:1010C000B1E008950C942409672F782F8827B85F22
:1010D00039F0B93FCCF3869577956795B395D9F7F5
:1010E0003EF490958095709561957F4F8F4F9F4FFF
:1010F0000895E89409C097FB3EF49095809570950B
:1011000061957F4F8F4F9F4F9923A9F0F92F96E953
:10111000BB279395F695879577956795B795F111C8
:10112000F8CFFAF4BB0F11F460FF1BC06F5F7F4F65
:101130008F4F9F4F16C0882311F096E911C0772377
:1011400021F09EE8872F762F05C0662371F096E880
:10115000862F70E060E02AF09A95660F771F881F4F
:10116000DAF7880F9695879597F90895990F0008F3
:10117000550FAA0BE0E8FEEF16161706E807F90769
:10118000C0F012161306E407F50798F0621B730B04
:10119000840B950B39F40A2661F0232B242B252B85
:1011A00021F408950A2609F4A140A6958FEF811D28
:1011B000811D089597F99F6780E870E060E00895C9
:1011C0009FEF80EC089500240A941616170618065F
:1011D0000906089500240A9412161306140605063B
:1011E0000895092E0394000C11F4882352F0BB0FCC
:1011F00040F4BF2B11F460FF04C06F5F7F4F8F4F2F
:101200009F4F089557FD9058440F551F59F05F3F69
:1012100071F04795880F97FB991F61F09F3F79F018
:1012200087950895121613061406551FF2CF46959A
:10123000F1DF08C0161617061806991FF1CF86951C
:101240007105610508940895E894BB276627772700
:10125000CB0197F908950E94B60808F48FEF08951E
:101260000E9443090C94F1080E94E30838F00E94A0
:10127000EA0820F0952311F00C94DA080C94E008A9
:1012800011240C9425090E94020970F3959FC1F363
:10129000950F50E0551F629FF001729FBB27F00D24
:1012A000B11D639FAA27F00DB11DAA1F649F662779
:1012B000B00DA11D661F829F2227B00DA11D621FC8
:1012C000739FB00DA11D621F839FA00D611D221F82
:1012D000749F3327A00D611D231F849F600D211D66
:1012E000822F762F6A2F11249F5750409AF0F1F0E9
:1012F00088234AF0EE0FFF1FBB1F661F771F881F52
:1013000091505040A9F79E3F510580F00C94DA08A7
:101310000C9425095F3FE4F3983ED4F386957795C6
:101320006795B795F795E7959F5FC1F7FE2B880FF7
:10133000911D9695879597F908950E94B608880B98
:10134000990B0895A1E21A2EAA1BBB1BFD010DC02B
:10135000AA1FBB1FEE1FFF1FA217B307E407F50765
:1013600020F0A21BB30BE40BF50B661F771F881F41
:10137000991F1A9469F760957095809590959B01D7
:10138000AC01BD01CF010895EE0FFF1F0590F49150
:08139000E02D0994F894FFCF51
:10139800000000004903A902D60296030703E502EC
:1013A800F9026E616E00696E66006F7666007B22D8
:1013B80074656D7065726174757265223A002C22CD
:1013C80068756D6964697479223A007D000D0A00B8
:00000001FF
